:100000000C9434000C9451000C9451000C94510049
:100010000C9451000C9451000C9451000C9451001C
:100020000C9451000C9451000C9451000C9451000C
:100030000C9451000C9451000C9453000C945100FA
:100040000C9451000C9451000C9451000C945100EC
:100050000C9451000C9451000C9451000C945100DC
:100060000C9451000C94510011241FBECFEFD8E026
:10007000DEBFCDBF11E0A0E0B1E0E2E4F3E002C0FA
:1000800005900D92A232B107D9F721E0A2E2B1E0CA
:1000900001C01D92A332B207E1F70E944B010C94FC
:1000A0009F010C9400001F920F920FB60F92112423
:1000B0002F933F938F939F93EF93FF938BB18F7CFD
:1000C0008BB9809100018031C9F4809101018823AE
:1000D00021F0809122018F7023C0209122018DECAC
:1000E000289F812D1124869586958695880F982FB7
:1000F000990F990F890F281B822F12C0809101013F
:10010000882329F08091220182958F7009C0809107
:1001100022019DEC899F812D1124869586958695D7
:1001200025B190E0207FFC01EE5EFE4F3081232B55
:1001300025B92BB12373FC01EE5FFE4F9081822F16
:10014000892B8BB99BB180910001892B8BB9909140
:10015000000180E3892780930001FF91EF919F9137
:100160008F913F912F910F900FBE0F901F90189578
:1001700084B18F6084B98AB18C6F8AB982E084BD02
:100180009DE497BD80936E0085E085BD78940895C9
:10019000CF93DF9300D0CDB7DEB719828981853048
:1001A00040F489818A8389818F5F89838981853041
:1001B000C0F30F900F90DF91CF91089587B18063C6
:1001C00087B988B1806388B90E94C80044980E94AA
:1001D000C80045980E94C800089544980E94C8002D
:1001E000459A0E94C800449A0E94C80008950F933F
:1001F0001F93CF93DF93082FC8E0D0E010E8802F43
:10020000812311F4449801C0449A0E94C800459A81
:100210000E94C80045981695219789F70E94C8004A
:100220003C98459A0E94C80086B145983C9A8295B0
:100230008170DF91CF911F910F9108950F931F93BC
:10024000CF93DF933C980E94C800C8E0D0E000E064
:1002500010E8459A0E94C8003499010F45980E9401
:10026000C80016952197A9F73C9A802FDF91CF916E
:100270001F910F9108954498459A0E94C80045988F
:100280000E94C8000895449A459A0E94C800459863
:100290000E94C80008950E94B80081E08093010187
:1002A0000E94DE0086E60E94F70085EC0E94F700BF
:1002B00081E00E94F7000E94ED000E94C8000E94A9
:1002C000DE0086E60E94F7008DEC0E94F7008EE1CA
:1002D0000E94F7000E94ED000E94C8000E94DE000C
:1002E00086E60E94F70084EC0E94F70084E00E94FA
:1002F000F7000E94ED000E94C8000E94DE0086E622
:100300000E94F70081EC0E94F7000E94ED000E941D
:10031000DE0087E60E94F7000E941E01C82F0E949F
:100320003B010E941E01D82F0E94C8000E94430179
:100330000E94ED00CC2394F6D0932201CFCFF89405
:02034000FFCFED
:10034200100100C440C0848808C00080000C4C44E6
:1003520008080C0D0A080908080D080809080A0807
:020362000A0B84
:00000001FF
