:100000000C9434000C944C000C943E000C943E0074
:100010000C943E000C943E000C943E000C943E0068
:100020000C943E000C943E000C943E000C943E0058
:100030000C943E000C943E000C943E000C943E0048
:100040000C943E000C943E000C943E000C943E0038
:100050000C943E000C943E000C943E000C943E0028
:100060000C943E000C943E0011241FBECFEFD8E04C
:10007000DEBFCDBF0E9440000C945E000C940000D7
:1000800052985A9A209A15B8E9E6F0E08081836088
:100090008083E89A7894FFCF1F920F920FB60F9249
:1000A00011248F939F9395B181E0892785B99F9102
:1000B0008F910F900FBE0F901F901895F894FFCF5F
:00000001FF
