:100000000C9434000C943E000C943E000C943E0082
:100010000C943E000C943E000C943E000C943E0068
:100020000C943E000C943E000C943E000C943E0058
:100030000C943E000C943E000C943E000C943E0048
:100040000C943E000C943E000C943E000C943E0038
:100050000C943E000C943E000C943E000C943E0028
:100060000C943E000C943E0011241FBECFEFD8E04C
:10007000DEBFCDBF0E9452000C9466000C940000BD
:1000800094B19F6394B99AB1906C9AB985B986FF7F
:1000900002C05E9A01C05E98882314F45F9A0895A6
:1000A0005F98089508E010E0C0E88C2F0E9440009F
:1000B0002FEF81EE94E0215080409040E1F700C0A6
:1000C0000000C6950150110981F7ECCFF894FFCFDD
:00000001FF
