S00F0000327837205365672E73726563F5
S11300000C9434000C9449000C9449000C9449005D
S11300100C9449000C9449000C9449000C94490038
S11300200C9449000C9449000C9449000C94490028
S11300300C9449000C9449000C9449000C94490018
S11300400C9449000C9449000C9449000C94490008
S11300500C9449000C9449000C9449000C944900F8
S11300600C9449000C94490011241FBECFEFD8E032
S1130070DEBFCDBF11E0A0E0B1E0ECE9F1E002C0E9
S113008005900D92AC30B107D9F70E948C000C9406
S1130090CC000C94000094B19F6394B99AB1906C15
S11300A09AB985B986FF02C05E9A01C05E9888231A
S11300B014F45F9A08955F9808959AB19C639AB96D
S11300C097B19F6097B980FF02C05D9A01C05D98A7
S11300D081FF02C05C9A01C05C9882FF02C05B9AF7
S11300E001C05B9883FF02C05A9A01C05A9884FFEA
S11300F002C0409A01C0409885FF02C0419A01C0E5
S1130100419886FF02C0429A01C04298882314F4A1
S1130110439A089543980895CF93DF93CDB7DEB7FC
S11301202B970FB6F894DEBF0FBECDBF8BE0E0E097
S1130130F1E0DE01119601900D928A95E1F77E01BE
S11301402BE0E20EF11CCE0101966C01F6018191C7
S11301506F010E944B00FFEF23EC89E0F150204037
S11301608040E1F700C000008E010F5F1F4FF801CF
S113017081918F010E945D00FFEF23EC89E0F15033
S113018020408040E1F700C000000E151F0579F7FC
S10F0190CE14DF04D9F6D7CFF894FFCFCB
S10F019C03F3250D9949411F0119FE00D1
S9030000FC
