S01A00004F6E65576972655F54656D7053656E736F722E73726563E2
S11300000C9434000C9451000C9451000C94510045
S11300100C9451000C9451000C9451000C94510018
S11300200C9451000C9451000C9451000C94510008
S11300300C9451000C9451000C9453000C945100F6
S11300400C9451000C9451000C9451000C945100E8
S11300500C9451000C9451000C9451000C945100D8
S11300600C9451000C94510011241FBECFEFD8E022
S1130070DEBFCDBF11E0A0E0B1E0E0EFF2E002C0EE
S113008005900D92A232B107D9F721E0A2E2B1E0C6
S113009001C01D92A332B207E1F70E943A010C9409
S11300A076010C9400001F920F920FB60F92112448
S11300B02F933F938F939F93EF93FF938BB18F7CF9
S11300C08BB9809100018031C9F4809101018823AA
S11300D021F0809122018F7023C0209122018DECA8
S11300E0289F812D1124869586958695880F982FB3
S11300F0990F990F890F281B822F12C0809101013B
S1130100882329F08091220182958F7009C0809103
S113011022019DEC899F812D1124869586958695D3
S113012025B190E0207FFC01EE5EFE4F3081232B51
S113013025B92BB12373FC01EE5FFE4F9081822F12
S1130140892B8BB99BB180910001892B8BB990913C
S1130150000180E3892780930001FF91EF919F9133
S11301608F913F912F910F900FBE0F901F90189574
S113017084B18F6084B98AB18C6F8AB982E084BDFE
S11301809DE497BD80936E0085E085BD78940895C5
S1130190F8942C9878948FE797E00197F1F700C0D2
S11301A00000F8942C9A78942498E7E1F1E03197D0
S11301B0F1F700C00000F89483B17894249AE7E63C
S11301C0F6E03197F1F700C000008071089528E04F
S11301D030E080FF11C0F8942C98789445E34A9558
S11301E0F1F70000F8942C9A7894E7ECF0E031975A
S11301F0F1F700C000000CC0F8942C987894EFEE4E
S1130200F0E03197F1F700C00000F8942C9A78944C
S1130210F5E3FA95F1F7000095958795215031099A
S1130220C1F6089528E030E080E08695F8942C9893
S1130230789490E29A95F1F7F8942C9A7894E0E304
S1130240EA95F1F72498F89493B178949071990F02
S1130250990F990F892BEBEDF0E03197F1F700C07E
S11302600000249AF5E3FA95F1F7000021503109D2
S1130270E1F608950E94B80081E080930101249A78
S11302800E94C8008CEC90E00E94E70084E490E0B7
S11302900E94E700F8942C9A78942FEF8EE994E268
S11302A0215080409040E1F700C000000E94C80047
S11302B08CEC90E00E94E7008EEB90E00E94E70057
S11302C00E941201C82F2FEF89E698E12150804047
S11302D09040E1F700C000000E941201C295CF7067
S11302E08295807F8C2B80932201CACFF894FFCF14
S11302F0100100C440C0848808C00080000C4C4435
S113030008080C0D0A080908080D080809080A0855
S10503100A0BD2
S9030000FC
