:100000000C9434000C9451000C9451000C94510049
:100010000C9451000C9451000C9451000C9451001C
:100020000C9451000C9451000C9451000C9451000C
:100030000C9451000C9451000C9453000C945100FA
:100040000C9451000C9451000C9451000C945100EC
:100050000C9451000C9451000C9451000C945100DC
:100060000C9451000C94510011241FBECFEFD8E026
:10007000DEBFCDBF11E0A0E0B1E0E2E6F3E002C0F8
:1000800005900D92A232B107D9F721E0A2E2B1E0CA
:1000900001C01D92A332B207E1F70E9455010C94F2
:1000A000AF010C9400001F920F920FB60F92112413
:1000B0002F933F938F939F93EF93FF938BB18F7CFD
:1000C0008BB9809100018031C9F4809101018823AE
:1000D00021F0809122018F7023C0209122018DECAC
:1000E000289F812D1124869586958695880F982FB7
:1000F000990F990F890F281B822F12C0809101013F
:10010000882329F08091220182958F7009C0809107
:1001100022019DEC899F812D1124869586958695D7
:1001200025B190E0207FFC01EE5EFE4F3081232B55
:1001300025B92BB12373FC01EE5FFE4F9081822F16
:10014000892B8BB99BB180910001892B8BB9909140
:10015000000180E3892780930001FF91EF919F9137
:100160008F913F912F910F900FBE0F901F90189578
:1001700084B18F6084B98AB18C6F8AB982E084BD02
:100180009DE497BD80936E0085E085BD78940895C9
:10019000249AF8942C988FE797E00197F1F700C024
:1001A00000002C9A2498E7E1F1E03197F1F700C0C4
:1001B000000083B17894E7E6F6E03197F1F700C0EC
:1001C00000008071089580FF13C0F894249A2C9841
:1001D00080E28A95F1F72C9A95E39A95F1F7000061
:1001E000789487ED90E00197F1F700C00000089542
:1001F000F894249A2C9890E29A95F1F72C98789498
:1002000087ED90E00197F1F700C0000008950F938B
:100210001F93CF93DF93D82F07E010E0C1E08D2F1D
:100220008C2321F081E00E94E30003C080E00E9463
:10023000E300CC0F0150110991F7DF91CF911F918D
:100240000F910895F894249A2C9880E28A95F1F7FA
:100250002498E0E3EA95F1F783B17894EBEDF0E0D0
:100260003197F1F700C0000080710895FF920F935D
:100270001F93CF93DF9307E010E0D1E0C1E0F12CB2
:100280000E942201882329F0FD2A85E38A95F1F74F
:100290000000CC0FDC2F0150110991F78F2DDF9159
:1002A000CF911F910F91FF900895CF93DF93CDB71A
:1002B000DEB72C970FB6F894DEBF0FBECDBF0E94FD
:1002C000B80081E0809301016E012AE0C20ED11CCA
:1002D0000E94C8008CEC0E94070184E40E94070180
:1002E000F894249A2C9A78943FEF83ED90E3315060
:1002F00080409040E1F700C000000E94C8008CECF4
:100300000E9407018EEB0E940701FE0131967F01DA
:100310008F010E943601F80181938F01EC15FD05D4
:10032000C1F780E0F70191917F0190932201FFEFE7
:1003300023ED30E3F15020403040E1F700C00000F1
:10034000809322019FEFE3ECF9E09150E040F04010
:10035000E1F700C000008F5F893021F7B9CFF89432
:02036000FFCFCD
:10036200100100C440C0848808C00080000C4C44C6
:1003720008080C0D0A080908080D080809080A08E7
:020382000A0B64
:00000001FF
