S01D0000375365676D656E745F416E7A656967655F4D656E6B2E73726563F1
S11300000C9434000C9449000C9449000C9449005D
S11300100C9449000C9449000C9449000C94490038
S11300200C9449000C9449000C9449000C94490028
S11300300C9449000C9449000C9449000C94490018
S11300400C9449000C9449000C9449000C94490008
S11300500C9449000C9449000C9449000C944900F8
S11300600C9449000C94490011241FBECFEFD8E032
S1130070DEBFCDBF11E0A0E0B1E0E2EFF0E002C0EE
S113008005900D92A230B107D9F70E945D000C943F
S113009077000C94000094B19F6394B99AB1906C6A
S11300A09AB985B986FF02C05E9A01C05E9888231A
S11300B014F45F9A08955F980895C9E0809100014F
S11300C00E944B002FEF85EA9EE021508040904033
S11300D0E1F700C0000080910001811102C0C093CB
S11300E0000180910001815080930001E7CFF894D2
S10500F0FFCF3C
S10500F20900FF
S9030000FC
