S01C00004261757374656C6C656E616D70656C5F546573742E73726563EB
S11300000C9434000C9401010C9431010C943E00C6
S11300100C943E000C943E000C943E000C943E0064
S11300200C943E000C943E000C943E000C943E0054
S11300300C943E000C943E000C943E000C943E0044
S11300400C943E000C943E000C943E000C943E0034
S11300500C943E000C943E000C943E000C943E0024
S11300600C943E000C943E0011241FBECFEFD8E048
S1130070DEBFCDBF0E94F0000C9461010C9400001F
S113008094B19F6394B99AB1906C9AB985B986FF7B
S113009002C05E9A01C05E98882314F45F9A0895A2
S11300A05F98089580E90E9440002FEF85EA9EE062
S11300B0215080409040E1F700C0000080E50E949C
S11300C040002FEF89E698E1215080409040E1F70D
S11300D000C0000080E30E944000089580E30E9475
S11300E040002FEF85EA9EE0215080409040E1F7E8
S11300F000C0000080E70E9440002FEF85EA9EE0E8
S1130100215080409040E1F700C0000080E90E9447
S11301104000089581E20E9440002FEF85EA9EE0AE
S1130120215080409040E1F700C0000082E20E942C
S113013040002FEF89E698E1215080409040E1F79C
S113014000C0000080E30E944000089580E30E9404
S113015040002FEF85EA9EE0215080409040E1F777
S113016000C0000082E30E9440002FEF85EA9EE079
S1130170215080409040E1F700C0000081E20E94DD
S1130180400008950E94A6002FEF83ED90E32150D4
S113019080409040E1F700C000000E948A002FEFE9
S11301A083ED90E3215080409040E1F700C00000CF
S11301B008950E946E002FEF83ED90E3215080405C
S11301C09040E1F700C000000E9452002FEF83ED41
S11301D090E3215080409040E1F700C00000089572
S11301E080E30E94400022988BB18C608BB9E9E6D1
S11301F0F0E08081836080838DB383608DBB7894CD
S1130200FFCF1F920F920FB60F9211242F933F939B
S11302104F935F936F937F938F939F93AF93BF930A
S1130220EF93FF930E94C2002FEF83ED90E32150E0
S113023080409040E1F700C0000080E30E9440004D
S1130240FF91EF91BF91AF919F918F917F916F91AA
S11302505F914F913F912F910F900FBE0F901F9080
S113026018951F920F920FB60F9211242F933F935C
S11302704F935F936F937F938F939F93AF93BF93AA
S1130280EF93FF930E94D9002FEF83ED90E3215069
S113029080409040E1F700C0000080E30E944000ED
S11302A0FF91EF91BF91AF919F918F917F916F914A
S11302B05F914F913F912F910F900FBE0F901F9020
S10902C01895F894FFCF2D
S9030000FC
