:100000000C9434000C9449000C9449000C94490061
:100010000C9449000C9449000C9449000C9449003C
:100020000C9449000C9449000C9449000C9449002C
:100030000C9449000C9449000C9449000C9449001C
:100040000C9449000C9449000C9449000C9449000C
:100050000C9449000C9449000C9449000C944900FC
:100060000C9449000C94490011241FBECFEFD8E036
:10007000DEBFCDBF11E0A0E0B1E0E0E3F2E002C0FE
:1000800005900D92AC30B107D9F70E94DB000C94BB
:1000900016010C94000094B19F6394B99AB1906CCE
:1000A0009AB985B986FF02C05E9A01C05E9888231E
:1000B00014F45F9A08955F9808959AB19C639AB971
:1000C00097B19F6097B980FF02C05D9A01C05D98AB
:1000D00081FF02C05C9A01C05C9882FF02C05B9AFB
:1000E00001C05B9883FF02C05A9A01C05A9884FFEE
:1000F00002C0409A01C0409885FF02C0419A01C0E9
:10010000419886FF02C0429A01C04298882314F4A5
:10011000439A089543980895EF92FF920F931F9387
:10012000CF93DF93CDB7DEB72B970FB6F894DEBF32
:100130000FBECDBF8C018BE0E0E0F1E0DE01119657
:1001400001900D928A95E1F77801C8010996099707
:1001500048F48DEF0E944B00FE01E01BF10B818102
:100160000E945D0084E6E816F104C0F4C8016AE06C
:1001700070E00E94EE008C01E1E0F0E0EC0FFD1F6A
:10018000E60FF71F80810E944B00E1E0F0E0EC0FEA
:10019000FD1FE00FF11F80810E945D002B960FB6BE
:1001A000F894DEBF0FBECDBFDF91CF911F910F91AD
:1001B000FF90EF900895C7EFDFEFCE010E948C0013
:1001C0002FEF85EA9EE0215080409040E1F700C08B
:1001D00000002196C436D10581F7EDCF97FB072E9D
:1001E00016F4009407D077FD09D00E94020107FCA5
:1001F00005D03EF4909581959F4F08957095619537
:100200007F4F0895AA1BBB1B51E107C0AA1FBB1F4C
:10021000A617B70710F0A61BB70B881F991F5A9592
:10022000A9F780959095BC01CD010895F894FFCF72
:0C02300003F3250D9949411F0119FE0040
:00000001FF
