:100000000C9434000C943E000C943E000C943E0082
:100010000C943E000C943E000C943E000C943E0068
:100020000C943E000C943E000C943E000C943E0058
:100030000C943E000C943E000C943E000C943E0048
:100040000C943E000C943E000C943E000C943E0038
:100050000C943E000C943E000C943E000C943E0028
:100060000C943E000C943E0011241FBECFEFD8E04C
:10007000DEBFCDBF0E944E000C945F000C940000C8
:100080008BB1806C8BB985B18F6385B908958BB1C5
:100090008F738BB985B1807C85B90895539884B1ED
:1000A0008F6384B98AB1806C8AB988E08BB94B9927
:1000B00003C00E944000FBCF0E944700F8CFF89495
:0200C000FFCF70
:00000001FF
