S01900005461737465725F456E747072656C6C656E2E7372656320
S11300000C9434000C9446000C9446000C94460066
S11300100C9446000C9446000C9446000C94460044
S11300200C9446000C9446000C9446000C94460034
S11300300C9446000C9446000C9446000C94460024
S11300400C9446000C9446000C9446000C94460014
S11300500C9446000C9446000C9446000C94460004
S11300600C9446000C94460011241FBECFEFD8E038
S1130070DEBFCDBF21E0A0E0B1E001C01D92A13000
S1130080B207E1F70E9456000C9483000C94000020
S11300908BB1806C8BB985B18F6385B908958BB1B1
S11300A08F738BB985B1807C85B90895529884B1DA
S11300B08F6384B98AB1806C8AB9529AC1E04A9933
S11300C0FECF02C081E001C080E0EFE9FFE031979C
S11300D0F1F700C000004A99F5CF00008F5F8A3025
S11300E0A0F380910001813029F40E944800C0935C
S11300F0000106C0811104C00E944F00109200014B
S10D01004A9BFECFDCCFF894FFCF3A
S9030000FC
