S01600005461737465725F436F756E7465722E737265635C
S11300000C9434000C9469000C9492000C944600F7
S11300100C9446000C9446000C9446000C94460044
S11300200C9446000C9446000C9446000C94460034
S11300300C9446000C9446000C9446000C94460024
S11300400C9446000C9446000C9446000C94460014
S11300500C9446000C9446000C9446000C94460004
S11300600C9446000C94460011241FBECFEFD8E038
S1130070DEBFCDBF21E0A0E0B1E001C01D92A13000
S1130080B207E1F70E945A000C94B9000C940000E6
S113009094B19F6394B99AB1906C9AB985B986FF6B
S11300A002C05E9A01C05E98882314F45F9A089592
S11300B05F9808958AB1837F8AB98BB18C608BB9BC
S11300C0E9E6F0E0808183608083E89AE99A789495
S11300D0FFCF1F920F920FB60F9211242F933F93CD
S11300E04F935F936F937F938F939F93AF93BF933C
S11300F0EF93FF93809100018F5F809300010E9432
S11301004800FF91EF91BF91AF919F918F917F91A3
S11301106F915F914F913F912F910F900FBE0F9070
S11301201F9018951F920F920FB60F9211242F93C0
S11301303F934F935F936F937F938F939F93AF936B
S1130140BF93EF93FF931092000180E00E94480058
S1130150FF91EF91BF91AF919F918F917F916F919B
S11301605F914F913F912F910F900FBE0F901F9071
S10901701895F894FFCF7E
S9030000FC
