S01A0000416E7A65696765546573745F467269636B652E73726563F4
S11300000C9434000C9451000C9451000C94510045
S11300100C9451000C9451000C9451000C94510018
S11300200C9451000C9451000C9451000C94510008
S11300300C9451000C9451000C9453000C945100F6
S11300400C9451000C9451000C9451000C945100E8
S11300500C9451000C9451000C9451000C945100D8
S11300600C9451000C94510011241FBECFEFD8E022
S1130070DEBFCDBF11E0A0E0B1E0E2E0F2E002C0FB
S113008005900D92A232B107D9F721E0A2E2B1E0C6
S113009001C01D92A332B207E1F70E94C8000C947C
S11300A0FF000C9400001F920F920FB60F921124C0
S11300B02F933F938F939F93EF93FF938BB18F7CF9
S11300C08BB9809100018031C9F4809101018823AA
S11300D021F0809122018F7023C0209122018DECA8
S11300E0289F812D1124869586958695880F982FB3
S11300F0990F990F890F281B822F12C0809101013B
S1130100882329F08091220182958F7009C0809103
S113011022019DEC899F812D1124869586958695D3
S113012025B190E0207FFC01EE5EFE4F3081232B51
S113013025B92BB12373FC01EE5FFE4F9081822F12
S1130140892B8BB99BB180910001892B8BB990913C
S1130150000180E3892780930001FF91EF919F9133
S11301608F913F912F910F900FBE0F901F90189574
S113017084B18F6084B98AB18C6F8AB982E084BDFE
S11301809DE497BD80936E0085E085BD78940895C5
S11301900E94B80091E010920101109222012FEF09
S11301A035EA8EE0215030408040E1F700C0000085
S11301B0809122018F5F80932201843680F311C0E5
S11301C02FEF35EA8EE0215030408040E1F700C047
S11301D00000809122018F5F809322018F3F81F77D
S11301E0DACF2FEF39E688E1215030408040E1F743
S11301F000C000009093010110922201E1CFF89415
S1050200FFCF2A
S1130202100100C440C0848808C00080000C4C4423
S113021208080C0D0A080908080D080809080A0844
S10502220A0BC1
S9030000FC
