S00F00004C43445F4144432E737265631B
S11300000C9434000C9451000C9451000C94510045
S11300100C9451000C9451000C9451000C94510018
S11300200C9451000C9451000C9451000C94510008
S11300300C9451000C9451000C9451000C945100F8
S11300400C9451000C9451000C9451000C945100E8
S11300500C9451000C9451000C9451000C945100D8
S11300600C9451000C94510011241FBECFEFD8E022
S1130070DEBFCDBF11E0A0E0B1E0EAEAF3E002C0E8
S113008005900D92A030B107D9F721E0A0E0B1E0CE
S113009001C01D92A030B207E1F70E9460010C94E8
S11300A0D3010C940000CF93DF931F92CDB7DEB73A
S11300B06983811102C0289801C0289A8981882304
S11300C014F45F9A01C05F98898186FF02C05E9A2A
S11300D001C05E98898185FF02C02D9A01C02D98C8
S11300E0898184FF02C02C9A01C02C982A9A8FE936
S11300F09FE00197F1F700C000002A988FE99FE084
S11301000197F1F700C00000898183FF02C05F9A64
S113011001C05F98898182FF02C05E9A01C05E9827
S1130120898181FF02C02D9A01C02D98898180FFA9
S113013002C02C9A01C02C982A9A8FE99FE001975B
S1130140F1F700C000002A988FE19EE40197F1F7CF
S113015000C000000F90DF91CF9108950F931F937B
S1130160CF93DF93FC01608161110BC013C06991CF
S1130170662381F081E00E9453000C171D07B9F734
S113018009C08C0181E00E945300E80121960150CE
S11301901F4FEDCFDF91CF911F910F9108952A9AB0
S11301A08FE99FE00197F1F700C000002A980895B5
S11301B084B1876384B98AB1806C8AB929982FEF96
S11301C08DEE92E0215080409040E1F700C00000A5
S11301D02D9A2C9A0E94CF002FEF83EF91E02150AB
S11301E080409040E1F700C000000E94CF008FE9FA
S11301F09FE00197F1F700C000000E94CF008FE15B
S11302009EE40197F1F700C000002D9A2C980E94FB
S1130210CF008FE19EE40197F1F700C0000068E28F
S113022080E00E94530068E080E00E94530061E097
S113023080E00E94530066E080E00E9453006CE07E
S113024080E00E945300089561E080E00E94530022
S11302500895813011F480E401C080E06058680F93
S113026080E00E9453000895CF92DF92EF92FF92B4
S1130270CF93DF93CDB7DEB72A970FB6F894DEBFDE
S11302800FBECDBF6B017C01842F622F0E94290118
S113029042E0BE016F5F7F4FC6010E949E01CE0106
S11302A001960E94AE002A960FB6F894DEBF0FBEE8
S11302B0CDBFDF91CF91FF90EF90DF90CF90089565
S11302C00E94D8000E942401ACE7B0E08C918064C5
S11302D08C93EAE7F0E08081806880838081876086
S11302E080838C91827F8C938C918F7D8C93808181
S11302F0806480838091780090917900CAE7D0E08F
S113030008E710E0888180648883888186FDFDCFBA
S1130310F801E080F1800E942401B70180E090E0C0
S113032020E040E00E943401FFEF21EE84E0F15030
S113033020408040E1F700C00000E4CFBB274A30F2
S113034031F4992322F4BDE2909581959F4F0C944A
S1130350AA01BB27FB015527AA27880F991FAA1FAB
S1130360A41710F0A41B83955051B9F7A05DAA33CC
S113037008F0A95DA193009779F7B111B193119297
S1130380CB010C94C301DC01FC01672F719177232D
S1130390E1F7329704C07C916D9370836291AE173C
S10D03A0BF07C8F30895F894FFCFD7
S9030000FC
