S00B00006932632E737265631B
S11300000C9434000C9451000C9451000C94510045
S11300100C9451000C9451000C9451000C94510018
S11300200C9451000C9451000C9451000C94510008
S11300300C9451000C9451000C9453000C945100F6
S11300400C9451000C9451000C9451000C945100E8
S11300500C9451000C9451000C9451000C945100D8
S11300600C9451000C94510011241FBECFEFD8E022
S1130070DEBFCDBF11E0A0E0B1E0E8E4F4E002C0EF
S113008005900D92A232B107D9F721E0A2E2B1E0C6
S113009001C01D92A332B207E1F70E9410020C9432
S11300A022020C9400001F920F9200905F000F92A6
S11300B011242F933F934F938F939F93EF93FF9329
S11300C0CF93DF931F92CDB7DEB78BE290E02BE2A4
S11300D030E0F90120812F7CFC01208380912101F3
S11300E08031E1F480912001882329F0809122015C
S11300F08F70898327C0909122018DEC989F812D68
S11301001124869586958695880F282F220F220F15
S1130110820FF92FF81B8F2F898314C0809120013F
S1130120882331F08091220182958F7089830AC0DF
S1130130909122018DEC989F812D112486958695AE
S11301408695898385E290E025E230E0F9012081FB
S1130150422F407F2981222F30E020503F4FF90168
S11301602081242BFC0120838BE290E02BE230E001
S1130170F9012081422F43732981222F30E0205F2F
S11301803E4FF9012081242BFC0120838BE290E077
S11301902BE230E0F901308120912101232BFC0175
S11301A020839091210180E389278093210100001D
S11301B00F90DF91CF91FF91EF919F918F914F918C
S11301C03F912F910F9000925F000F901F90189510
S11301D0CF93DF93CDB7DEB784E290E024E230E042
S11301E0F90120812F60FC0120838AE290E02AE259
S11301F030E0F90120812C6FFC01208384E490E03D
S113020022E0FC01208387E490E02DE4FC012083BC
S11302108EE690E022E0FC01208385E490E025E076
S1130220FC01208378940000DF91CF910895CF934F
S1130230DF9300D0CDB7DEB71A82198205C0898159
S11302409A8101969A83898389819A814097BCF324
S113025000000F900F90DF91CF910895CF93DF931B
S1130260CDB7DEB787E290E027E230E0F9012081E4
S11302702063FC0120830E94170188E290E028E2B9
S113028030E0F90120812063FC0120830E941701E2
S113029088E290E028E230E0F90120812F7EFC0121
S11302A020830E94170188E290E028E230E0F901FF
S11302B020812F7DFC0120830000DF91CF910895E0
S11302C0CF93DF93CDB7DEB787E290E027E230E04B
S11302D0F90120812061FC0120830E94170188E23A
S11302E090E028E230E0F90120812F7EFC01208398
S11302F00E94170188E290E028E230E0F9012081B1
S11303002062FC0120830E94170188E290E028E229
S113031030E0F90120812061FC0120830000DF919D
S1130320CF910895CF93DF9300D01F92CDB7DEB75E
S11303308B8387E290E027E230E0F901208120619D
S1130340FC0120830E94170180E8898331C09B81CE
S113035089818923882351F088E290E028E230E003
S1130360F90120812061FC01208309C088E290E02A
S113037028E230E0F90120812F7EFC0120830E94D5
S1130380170188E290E028E230E0F9012081206240
S1130390FC0120830E94170188E290E028E230E00B
S11303A0F90120812F7DFC01208389818695898331
S11303B08981882361F687E290E027E230E0F90141
S11303C020812F7EFC01208388E290E028E230E047
S11303D0F90120812062FC0120830E94170186E23A
S11303E090E0FC018081882F90E080719927959599
S11303F087959595879595958795959587958A83FE
S113040088E290E028E230E0F90120812F7DFC01B0
S113041020838A810F900F900F90DF91CF910895E0
S1130420CF93DF93CDB7DEB70E94E800109220018E
S11304300E942E0180E90E949201809322010E9471
S10B04406001F6CFF894FFCF30
S11304480C0D0A080908080D080809080A080A0B07
S113045800C440C0848808C00080000C4C440808CC
S105046801107D
S9030000FC
