:100000000C9434000C9451000C9451000C94510049
:100010000C9451000C9451000C9451000C9451001C
:100020000C9451000C9451000C9451000C9451000C
:100030000C9451000C9451000C9453000C945100FA
:100040000C9451000C9451000C9451000C945100EC
:100050000C9451000C9451000C9451000C945100DC
:100060000C9451000C94510011241FBECFEFD8E026
:10007000DEBFCDBF11E0A0E0B1E0ECE1F3E002C0F3
:1000800005900D92A232B107D9F721E0A2E2B1E0CA
:1000900001C01D92A332B207E1F70E9434010C9413
:1000A0008C010C9400001F920F920FB60F92112436
:1000B0002F933F938F939F93EF93FF938BB18F7CFD
:1000C0008BB9809100018031C9F4809101018823AE
:1000D00021F0809122018F7023C0209122018DECAC
:1000E000289F812D1124869586958695880F982FB7
:1000F000990F990F890F281B822F12C0809101013F
:10010000882329F08091220182958F7009C0809107
:1001100022019DEC899F812D1124869586958695D7
:1001200025B190E0207FFC01EE5EFE4F3081232B55
:1001300025B92BB12373FC01EE5FFE4F9081822F16
:10014000892B8BB99BB180910001892B8BB9909140
:10015000000180E3892780930001FF91EF919F9137
:100160008F913F912F910F900FBE0F901F90189578
:1001700084B18F6084B98AB18C6F8AB982E084BD02
:100180009DE497BD80936E0085E085BD78940895C9
:10019000F8942C9878948FE797E00197F1F700C0D6
:1001A0000000F8942C9A78942498E7E1F1E03197D4
:1001B000F1F700C0000083B1249AE7E6F6E031973A
:1001C000F1F700C000008071089528E030E080FF62
:1001D00011C0F8942C98789445E34A95F1F7000003
:1001E000F8942C9A7894E7ECF0E03197F1F700C09E
:1001F00000000CC0F8942C987894EFEEF0E0319762
:10020000F1F700C00000F8942C9A7894F5E3FA9581
:10021000F1F700009595879521503109C1F60895B1
:1002200028E080E08695F8942C98789490E29A954E
:10023000F1F7F8942C9A7894E0E3EA95F1F7249892
:1002400093B19071990F990F990F892BEBEDF0E015
:100250003197F1F700C00000249AF5E3FA95F1F721
:1002600000002150F9F60895CF93DF93CDB7DEB7A4
:1002700028970FB6F894DEBF0FBECDBF0E94B8001E
:1002800081E080930101249A6E0129E0C20ED11C05
:100290000F2EF8E8BF2EF02D0E94C80083E390E0F7
:1002A0000E94E5008E010F5F1F4F78010E94100130
:1002B000F70181937F018FE39CE90197F1F700C07B
:1002C0000000CE16DF0691F7F80181918F0180932F
:1002D0002201FFEF2FE087E2F15020408040E1F75C
:1002E00000C00000B09222019FEFE0E7F2E09150E1
:1002F000E040F040E1F700C000000C151D0521F7BB
:10030000109222012FEF87E893E121508040904026
:0C031000E1F700C00000C0CFF894FFCF60
:10031C00100100C440C0848808C00080000C4C440C
:10032C0008080C0D0A080908080D080809080A082D
:02033C000A0BAA
:00000001FF
